:020000040800F2
:10100000700D0020A9110008811500083515000891
:101010007D1500085D1400084D190008000000004F
:101020000000000000000000000000003D16000865
:101030003115000800000000B11500084116000835
:10104000C3110008C3110008C3110008C311000830
:10105000C3110008C3110008C3110008C311000820
:1010600000000000611400088D140008C914000875
:10107000B1120008C3110008C311000800000000ED
:10108000B5180008C311000800000000711800081E
:1010900089180008A1180008C3110008C31100082E
:1010A000C3110008C3110008C31100084919000842
:1010B000C311000800000000000000000000000054
:1010C000C311000800000000C311000800F002F87E
:1010D00000F05AF80AA090E8000C82448344AAF178
:1010E0000107DA4501D100F04FF8AFF2090EBAE876
:1010F0000F0013F0010F18BFFB1A43F0010318474C
:101100007C5800009C5800000A444FF0000C10F876
:10111000013B13F0070408BF10F8014B1D1108BF75
:1011200010F8015B641E05D010F8016B641E01F815
:10113000016BF9D113F0080F1EBF10F8014BAD1C65
:101140000C1B09D16D1E58BF01F801CBFAD505E083
:1011500014F8016B01F8016B6D1EF9D59142D6D3DD
:10116000704700000023002400250026103A28BF05
:1011700078C1FBD8520728BF30C148BF0B60704709
:101180001FB51FBD10B510BD00F058F81146FFF790
:10119000F7FF02F0C1FA00F076F803B4FFF7F2FFB0
:1011A00003BC00F07DF8000009488047094800476B
:1011B000FEE7FEE7FEE7FEE7FEE7FEE7FEE7FEE707
:1011C000FEE7FEE704480549054A064B7047000064
:1011D00045160008CD10000870070020700D002093
:1011E00070090020700900204FF0000200B513467E
:1011F00094469646203922BFA0E80C50A0E80C5037
:10120000B1F12001BFF4F7AF090728BFA0E80C50E7
:1012100048BF0CC05DF804EB890028BF40F8042BE0
:1012200008BF704748BF20F8022B11F0804F18BF4D
:1012300000F8012B7047704770477047754600F003
:101240002BF8AE4605006946534620F00700854658
:1012500018B020B5FFF7B6FFBDE820404FF00006FC
:101260004FF000074FF000084FF0000BAC46ACE821
:10127000C009ACE8C009ACE8C009ACE8C00921F07D
:1012800007018D46704710B50446AFF30080204635
:10129000BDE81040FFF781BF00487047D003002031
:1012A00001491820ABBEFEE726000200704700008F
:1012B00080B540F21440C4F201000168890258BFB1
:1012C00080BD4FF40011016001F03AFF80BD0000C5
:1012D00040F23040C2F20000818840F23842C2F24F
:1012E00000021180018840F23A42C2F200021180ED
:1012F000408840F23641C2F2000108807047000089
:10130000F0B587B042F200444FF4A0100121C4F2BE
:10131000010401F0E1FB092002210022002703F073
:1013200087FA0825C4F20205284601F053FD02AEF3
:10133000304601F0F9FC0320C0F20010CDF8120095
:1013400040F23040C2F20000039004F14C000290E1
:1013500040F20110C0F20120CDF8160028463146B7
:10136000ADF8107001F0F0FC28460221012201F0D6
:1013700029FD2846012101F0D1FC0920C0F2180006
:10138000012101F0A9FB022001F07EFA01AD2846FF
:1013900000F050FB40F20110C0F2003001902046F6
:1013A000294600F025FB204603210122032300F0FB
:1013B00069FB204606210222032300F063FB20463E
:1013C00010210322032300F05DFB012000F074FCD8
:1013D00020460721012200F04FFC2046012100F0A9
:1013E00041FB2046012100F047FB204600F026FB90
:1013F000204600F029FB0028FAD1204600F028FB07
:10140000204600F02BFB0028FAD107B0F0BD000009
:1014100080B51120C0F21400012101F05DFB4FF4F2
:10142000C010012101F058FB4FF090400321002231
:10143000022301F04BFE4FF09040032100222023B5
:1014400001F044FE0C20002100F0B8FA0C2000F05E
:101450008FFA0020012100F00FFE80BDFEE70000A2
:10146000B0B5022001F068FC012818BFB0BD04240B
:10147000C4F2020401252560FFF72AFF082001F0CD
:101480005BFC012808BF2560B0BD000010B51C241E
:101490002020C4F2020401F04FFC012806D11020E4
:1014A00044F8180C206820F001002060802001F032
:1014B00043FC012818BF10BD102044F8180C206808
:1014C00020F00100206010BD10B504244FF48020EE
:1014D000C4F2020401F030FC012810D140F23B704C
:1014E000C2F20000007850B144F22000C4F20100C2
:1014F000016841F0020101604FF4802020604FF448
:10150000003001F019FC012808D14FF48030206030
:10151000606D20F00100606504F0FEFC4FF40020D7
:1015200001F00AFC012804BF4FF48030206010BD98
:1015300070470000FEE7000080B54FF4A0100121C5
:1015400001F0CAFA0B20012100F038FA0B2000F05C
:101550000FFA80BD43F20000C4F2000045F255517D
:1015600001604CF6CC410160032141604FF47A6187
:1015700081604AF6AA21016070470000FEE7000082
:101580007047000000F0070080F00703042B28BF1D
:1015900004234FF0FF3C03380CFA03F338BF00205C
:1015A000994381400CFA00F022EA0000084370479A
:1015B0007047000010B544F20C40C4F2010001680D
:1015C00040F2220421F001010160C2F2000440F265
:1015D0005E712088C2F20001098800EB40000844D7
:1015E0008008208000F088FD40F212012088C2F2BD
:1015F00000010978C208514340F25442C2F200028D
:101600001180C1EB500040F22A71C2F2000109784A
:1016100040F26472C2F200020029108008BF01F09B
:1016200027FC40F26870C2F20000016842F20F72BB
:1016300091429CBF0131016010BD00007047000065
:101640007047000041F20000C4F20200016841F05E
:101650000101016001688907FCD5416821F003019F
:10166000416000BF416811F00C0FFBD101684FF6DB
:10167000FF72CFF6F262114001600021416041F635
:101680001071C1624FF4801101634FF41F0181603A
:101690004EF6085041F20001CEF20000C0F6000103
:1016A0000160704780B50820C0F21C00012101F0E4
:1016B00013FA42F22800C4F200006421416077214D
:1016C00001601320022100F079F9132000F050F995
:1016D00080BD000080B51120C0F21800012101F08A
:1016E000FBF944F20040C4F201004FF4FA71C16208
:1016F0003B218162016841F08001016015200021D9
:1017000000F05CF9152000F033F980BD80B512209F
:10171000C0F21800012101F0DFF944F60000C4F224
:1017200001004FF6FF71C1623B218162016841F007
:101730008001016080BD000010B50B20C0F21800D0
:10174000012101F0C9F942F60044C4F2010440F657
:10175000B830E0620020A06246F66800A061682010
:10176000E06120460021012204F052FB20460221C4
:10177000012204F04DFB20460421012204F048FB25
:101780002046012104F066FB606C3C2161F30700F8
:1017900060641124C0F214042046012101F09CF978
:1017A000601C012101F098F940F20044C4F60004E5
:1017B000204602210022022301F088FC204602215B
:1017C0000022012301F082FC4FF090400221002210
:1017D000802301F07BFC20460121022201F082FCE3
:1017E00020460021022201F07DFC4FF090400721AD
:1017F000022201F077FC4FF09040022100224FF4CA
:10180000806301F063FC4FF09040022100224FF40E
:10181000007301F05BFC4FF09040022100224FF476
:10182000807301F053FC4FF090400A21022201F036
:1018300059FC4FF090400921022201F053FC4FF077
:1018400090400821022201F04DFC10BD80B504201B
:10185000C0F21C00012101F03FF941F22800C4F25E
:1018600000004FF6FF7141603B21016080BD000028
:1018700080B542F21000C4F200004FF6FE71016024
:1018800003F0A2FD80BD000044F21000C4F201008C
:101890004FF6FE7101604FF6FD7101607047000068
:1018A00080B544F21040C4F2010000210160FFF74E
:1018B00081FE80BD40F21040C4F20000016889073B
:1018C00044BF4FF6FD7101600168C9071CBF4FF6A8
:1018D000FE7101607047000080B51120C0F2140055
:1018E000012101F0F9F81020C0F21800012101F0E7
:1018F000F3F84FF0904002210022042301F0E6FBB0
:101900004FF4A010012101F0E7F85820C4F20200C2
:1019100040F68A1101600B20012100F04FF80B20E6
:1019200000F026F844F20000C4F201004FF6FF7107
:10193000C16210218162016841F08001016001688B
:1019400041F00101016080BD70470000FEE700002A
:10195000002848BF704700F01F01012202FA01F180
:101960004EF200124009CEF2000242F820107047F9
:1019700000F01F00012101FA00F04EF20011CEF23A
:1019800000010860704700004EF60C50CEF20000D7
:101990000068C0F3022070474EF6145300F00F02A7
:1019A000CEF2000309011A4400F16043B0F1FF3F99
:1019B000C8BF03F56442117070470000E422C0F212
:1019C000E002090162F31F20017070474EF60C50CF
:1019D000BFF34F8FCEF200000168042201F4E061F2
:1019E000C0F2FA5211430160BFF34F8F00BFFDE711
:1019F0000A78436802F0010223F4807343EA02226A
:101A000042604A78836862F3410383608A7883681E
:101A100002F0010223F4006343EAC2228260C97823
:101A2000C26A013901F00F0122F4700242EA015149
:101A3000C16270474FF0807101607047816841F06A
:101A400008018160704700008068C0F3C0007047E3
:101A5000816841F004018160704700008068C0F334
:101A600080007047826801F0010122F4807242EA2E
:101A70000121816070470000826861F3000282608A
:101A800070470000B0B5112900F29480DFE801F042
:101A9000090D161A1E22262A2E38424A535D6771F6
:101AA0007B8584465CF8104F37E084465CF8105F15
:101AB000382404EAC30E25F0380377E084465CF846
:101AC000104F3BE084465CF8104F41E084465CF8E0
:101AD000104F47E084465CF8104F4DE084465CF8B8
:101AE000104F53E084465CF8104F59E084465CF890
:101AF000104F03F007034FEA036E24F0E06355E054
:101B000084465CF8104F03F007034FEAC36E24F0DD
:101B100060534BE084465CF80C4F03F0070E24F052
:101B2000070343E084465CF80C4F382505EAC30EF2
:101B300024F038033AE084465CF80C4F03F00703C6
:101B40004FEA831E24F4E07330E084465CF80C4FC7
:101B500003F007034FEA432E24F4606326E0844633
:101B60005CF80C4F03F007034FEA033E24F4E04314
:101B70001CE084465CF80C4F03F007034FEAC33EB9
:101B800024F4603312E084465CF80C4F03F0070342
:101B90004FEA834E24F4E01308E084465CF80C4FCF
:101BA00003F007034FEA435E24F4600343EA0E03A5
:101BB000CCF80030013A0F2A88BFB0BDDFE802F050
:101BC000080B0E1114171A1D2023262F383F4851D9
:101BD00050F8342F2EE050F8342F32E050F8342FE4
:101BE00038E050F8342F3EE050F8342F10E050F831
:101BF000342F16E050F8302F1CE050F8302F20E042
:101C000050F8302F26E050F8302F2CE050F8302FCD
:101C10004FF0F87303EA015122F0F87229E050F80E
:101C2000302F4FF0785303EA416122F0785220E0E0
:101C300050F82C2F01F01F0122F01F0219E050F87C
:101C40002C2F4FF4787303EA411122F4787210E0DC
:101C500050F82C2F4FF4F84303EA812122F4F84284
:101C600007E050F82C2F4FF4782303EAC13122F417
:101C7000782211430160B0BD8368072923F0007307
:101C800088BF03F100738360836802F0010261F38F
:101C900053438360816821F4801141EA02518160DD
:101CA00070470000826801F0010122F4800242EADC
:101CB000815181607047000042F20841C4F2010185
:101CC0000A6800F0010022F4000242EAC0500860F5
:101CD000704700002DE9F04340F26000C2F20000BE
:101CE00040F22E720178C2F20002108840F2327C7B
:101CF00040F2307EC2F2000CC2F2000EC9B10138CF
:101D000001B2002948BF40F26710BEF800101080F1
:101D1000481E01B2002948BF40F26710BCF800100D
:101D2000AEF800004B1E18B2002848BF40F26713FF
:101D300018E0013001B2B1F5B47FA8BF0020BEF8B1
:101D400000101080481C01B2B1F5B47FA8BF00207C
:101D5000BCF80010AEF800004B1C18B2B0F5B47F10
:101D6000A8BF0023B2F9000040F28008C2F20008C8
:101D700038F9104040F26200C2F2000040F20E0159
:101D80000088C2F200010988044444F6D35904FBD8
:101D900001F5C1F2620940F25F3755FB09F5C2F265
:101DA0000007EE113F7806EBD57546F267667D4376
:101DB000C6F2666655FB06F5AA1002EBD57242F62E
:101DC0003445C4F20105BEF900402A6038F91420F8
:101DD000ACF8003002444A4352FB09F2D41104EB40
:101DE000D2727A4352FB06F2941004EBD2726A600C
:101DF0001AB238F912201044484350FB09F0C111BF
:101E000001EBD070784350FB06F0811001EBD070ED
:101E1000A860BDE8F083000080B502F01BFD02F071
:101E200071FD02F0C7FD80BD80B502F047FD02F0F4
:101E30009DFD02F0F3FD80BD40F2B632C2F2000219
:101E400013781C20C121C4F20100042BC4F200014C
:101E500001D0012B02D101F1100303601378052B8F
:101E600001D0022B02D101F1200303601278062A6F
:101E700003D0032A08BF016000E0016040F2533143
:101E8000C2F200010A78D0F8EC1352B121F400112B
:101E9000C0F8EC13D0F8F01341F40011C0F8F013BF
:101EA000704741F40011C0F8EC13D0F8F01321F49E
:101EB0000011C0F8F013704710B55820C4F20200AA
:101EC000016844F21404C4F201040160A4F1140096
:101ED00003F0CAFF012040F266016060C2F2000117
:101EE0000B200978E0604FF6FF706161A061206807
:101EF000002140F00100206040F22B70C2F200008F
:101F0000017010BD10B55820C4F20200016844F2FF
:101F1000140441F01001C4F201040160A4F11400A2
:101F200003F0A2FF602040F22C716060C2F2000159
:101F300003200978E0604C206161A06140F22B70C1
:101F4000C2F2000001210170206840F00100206011
:101F500010BD000070B540F24870C2F20000016888
:101F600040F26040C2F20000006840F2660240F2B7
:101F70002C7C40F2CD5340F21C0E0129C2F200022B
:101F8000C2F2000CC2F20003C2F2000E98BF022897
:101F900015D80124147000251C7040F218048CF828
:101FA0000050C2F200042C25257040F25404C2F205
:101FB00000044FF6E85525602024CEF8004021F0BB
:101FC000010102290BD1032809D80324147000242D
:101FD0008CF8004001241C702024CEF8004040F210
:101FE0000C740429C2F200040BD1072809D8072574
:101FF0001570012520268CF800501D70CEF8006069
:10200000257008290DD1132888BF70BD0F211170CC
:10201000032101208CF8001020211870CEF8001048
:10202000207070BD40F24870C2F20000006844F6B3
:10203000F241A0F22D10884288BF704740F23B70F9
:10204000C2F200000121017040F26600C2F20000FD
:102050007722027040F21400C2F2000023220280B4
:1020600040F21C00C2F200000222026040F20C703A
:10207000C2F2000001707047002818BF70471C2092
:10208000C4F20100026861F30002026070470000C0
:1020900080B50138052888BF80BDDFE800F0030A5D
:1020A00011181F2602F00AFC02F046FC02F082FC26
:1020B00080BD02F0CFFB02F03FFC02F0AFFC80BD20
:1020C00002F0E2FB02F01EFC02F0A8FC80BD02F070
:1020D000DBFB02F04BFC02F06DFC80BD02F0BAFBB2
:1020E00002F044FC02F080FC80BD02F0E7FB02F04D
:1020F00009FC02F079FC80BDF0B581B040F222000D
:10210000C2F20000028840F2B630C2F2000001784C
:1021100040F27243C2F2000303EB410727F8022C9E
:102120001A885F88DE883A449F8840F2E0543A4437
:102130001F8932445B893A441A4440F26003C2F278
:1021400000031B785208C2F20004012B22600FD159
:102150000131CAB2072A017006D340F28842012138
:10216000C2F2000201701170017801F001010FE06C
:1021700001390A06017007D10621017040F2884139
:10218000C2F2000101220A700178012222EA010153
:1021900040F2533244F62405C2F20002C4F20105B3
:1021A00011700021296040F23571C2F200010978F6
:1021B00011B90078FFF76CFF286840F27E41C2F247
:1021C00000010880FFF738FE40F25C40C2F20000D8
:1021D0000068B0F5FA6F11D940F24E7040F23F41FD
:1021E000C2F20000C2F2000100780978084305D06D
:1021F00040F22A70C2F200000121017040F26272C6
:1022000040F26A40C2F20002C2F2000000211278DD
:10221000017040F26670002AC2F2000001703ED0E8
:1022200040F23670C2F200000078C0B340F256703F
:102230002168C2F2000040F260340288C2F2000459
:10224000204600F0E9FD44F20001C4F21C6104F0F4
:10225000A5F840F21076C2F2000631680246084640
:10226000114604F003F80021C4F2FA41054604F0D7
:102270006DF800281CBF0025C4F2FA45284600214D
:10228000002704F078F8002840F26870C2F20000DD
:1022900018BF002500683560632898BF276101B02A
:1022A000F0BD00002DE9F04F87B040F28C40C2F243
:1022B00000000168C26F521A40F2D251C2F200010E
:1022C0000A8091B24B0903EB11216FF4967313FA54
:1022D00082F240F20473C2F20003C62A198000F2AF
:1022E000878040F28C5C0022C2F2000C00EBC2033B
:1022F0005B6850F83270DB1B8B424FF0000388BFE5
:1023000001234CF822300132102AEFD1DCE900071A
:10231000DCE904A4DCF82450DCF820B00397674023
:10232000DCE90262DCE90631029080EA0A006F40D3
:1023300080EA0B000094BF00DCF8284047EAC000A8
:1023400083EA0607674040EA4700DCF82C700692F3
:102350004A4005967A40DCF8346040EA020EDCF828
:102360003020B00040EAC20040F2564240F2DA5952
:10237000DCF83860C2F20002C2F2000992F8008074
:1023800099F8002040EA4600DCF83C6042EA080286
:10239000C446120640EA06000193049114D11022AB
:1023A000C4F60002126852070ED540F20878C2F255
:1023B000000898F800600136F2B2652A88F80060DB
:1023C00024BF012289F8002099F80020002A18BFB4
:1023D000C0F10F0080EA0E00000613D040F2CE508C
:1023E000C2F2000001880131018007B0BDE8F08F22
:1023F00040F2CE50C2F2000001880131018007B0E6
:10240000BDE8F08F02994FEA8A1040EA81200399D3
:1024100040EA8B0040EA4120009940F2D85340EA5C
:102420004110059940EA450040EA01200199C2F2B5
:10243000000340EA01100699204340EAC1100499C4
:102440001E8840EAC10040F24471C2F2000100223D
:102450000A80711C012F198005D140F23A71C2F235
:10246000000101220A7040F23C413028C2F2000112
:1024700014DB0A7892B140F22871C2F200010880A0
:1024800040F2DB50C2F200000021017040F27140C6
:10249000C2F20000017007B0BDE8F08F421E40F2AA
:1024A000DB542E2AC2F2000404D960B1BCF1000F43
:1024B00022D1A4E740F22872C2F200020023138066
:1024C00020700028F2D140F23D40C2F200000078B6
:1024D0000022012804BF0020087040F22870C2F2D8
:1024E0000000028040F27140C2F2000022700270CF
:1024F000BCF1000F3FF483AF207800283FF47FAF9A
:1025000040F23672C2F200021278002A7FF477AFEE
:1025100040F21C73C2F200031A78904240F27142FA
:10252000C2F200021EBF18700023137004289CBF63
:102530000623137013780133DFB2062F1370FFF4F4
:102540005EAF013800251428157000F29780DFE88F
:1025500000F00B0E119595951426394A955C5F7520
:102560009595959595838B0002F0C0FB86E002F06F
:10257000F5FB83E002F09AFA80E040F28A40C2F272
:1025800000000021017040F26000C2F20000012151
:10259000017040F23470C2F2000001706EE040F24F
:1025A0008A40C2F200000121017040F26000C2F2D4
:1025B00000000021017040F23470C2F200000221DC
:1025C00001705BE040F26B40C2F20000002101703C
:1025D00040F25640C2F20000017040F26C70C2F24C
:1025E000000001804AE040F26B40C2F2000001218D
:1025F000017040F26C70C2F200000021018040F2D4
:102600005640C2F20000017038E002F097FC35E05D
:1026100040F2D052C2F200020120107040F23D425E
:10262000C2F20002127840F23873C2F20003012AAB
:102630004FF460621A8008BF08701FE040F2D0506B
:10264000C2F200000021017040F23870C2F20000B6
:1026500040F6FF61018011E040F28A40C2F20000C2
:102660000078C0F1010004E040F28A40C2F20000AC
:10267000007840F26001C2F200010870207840F258
:102680001D71C2F200010870257007B0BDE8F08F1F
:102690002DE9F04782B040F28C46C2F20006D6E93E
:1026A000000140F27652081AA0F2213140F23C7447
:1026B0009142C2F200042CD840F26F45C2F20005EC
:1026C000297859B340F20777C2F200073978002918
:1026D00073D140F2067AC2F2000A9AF8001040F272
:1026E000207840F256390029C2F2000808BFA8F845
:1026F0000000C2F200094A1CB8F80000B9F8001046
:102700008AF8002000F038FC33282DDB00202870E8
:102710004FE040F26C70C2F200009AE040F26B4170
:10272000C2F20001097891B140F25A31C2F20001BF
:102730000A8890427DD940F25631C2F200010B88DE
:10274000511C4FF4FA671A4640F2E93379E040F23F
:10275000583140F25632C2F20001C2F2000209883A
:1027600012884FF4FA676BE0B9F80000D6E900125E
:10277000C0EBC000511A08449AF80010C008332971
:10278000A9F8000015D34FF62A111938CFF6FF71BA
:10279000A9F8000011FA80F000EBD07040F2E65189
:1027A0004008C2F2000181F821000120387002F0D7
:1027B0006FFAB9F80000A8F800003878002844D073
:1027C000D6E9000140F22476081A40F2E14188423D
:1027D000C2F200060CD840F258323178C2F2000240
:1027E000138801313170C3EBC3010844C008108065
:1027F00030784C2829D340F25830C2F200000188CA
:102800000027193101804FF61250CFF6FF7010FAF1
:1028100081F000EBD07040F2E6514008C2F20001B6
:1028200081F820002F7002F089FB377002F002FA65
:102830000BE040F25831C2F2000109884FF47A7778
:102840000023009701F0D4FF206040F24470C2F2F0
:10285000000040F22871C2F2000140F270072268C5
:102860000B88C2F200073F68D61ABE424FF000063E
:10287000068001DDDA1903E0981AB842C8BFDA1BF6
:102880000A8002B0BDE8F08741F20401C4F20201FF
:102890000A6860F38F320A600A68C0F3830060F34D
:1028A0001C720A607047000041F20401C4F2020188
:1028B0000A6800F00F0022F0F00242EA00100860FF
:1028C0007047000041F20401C4F202010A6800F0FE
:1028D000070022F4E06242EA00200860704700002E
:1028E00041F20401C4F202010A6800F0070022F478
:1028F000605242EAC02008607047000041F2540173
:10290000C4F202010A68012822F0300208BF303206
:102910000A607047042888BF7047DFE800F0030CA6
:1029200019262F0041F20000C4F20200026861F390
:1029300000020260704741F20000C4F20200026827
:1029400001F0010122F4803242EA01410160704746
:1029500041F20000C4F20200026801F0010122F01D
:10296000807242EA01610160704741F20000C4F2E6
:102970000200026A61F300020262704741F2000045
:10298000C4F20200426A61F3000242627047000032
:1029900070B541F2040541F200260446C4F2020576
:1029A000C0F27A0600F032F902280CD000284ED18D
:1029B000286D80054BD5E86A800144BF46F6004685
:1029C000C0F2DC2643E02868A96AC0F30040002971
:1029D00019D429682A68C1F38341C2F341721301F3
:1029E0000133002A1A4608BF02220F2908BF1A46DF
:1029F000002802EB01001FD140F60011C0F23D019A
:102A000000FB01F623E0AA6AAB6AC2F3031CAA6AC0
:102A100040F60011C0F23D01C3F30823002802F084
:102A2000070003D02A68920358BF314659430CFA75
:102A300000F0B1FBF0F60AE02968890301D44643AF
:102A400005E040F60011C0F23D0100FB01F62660F2
:102A5000286812A1C0F30310085C216813A221FAB0
:102A600000F060602968C1F30221515C20FA01F195
:102A7000E1602968C1F3C221515C0422C840A06012
:102A800029682B6802EA9161C3F38132114409A2DB
:102A9000515CB0FBF1F0206170BD00BF0000000090
:102AA00000000000010203040607080900000000FE
:102AB0000102030402040608020C081041F200029D
:102AC000010CC4F20202895800F01F0021FA00F044
:102AD00000F001007047000041F2000200F01F0307
:102AE0004FF0010CC4F2020201290CFA03F14FEA83
:102AF0001040835814BF23EA0101194381507047E5
:102B000041F2000200F01F034FF0010CC4F2020278
:102B100001290CFA03F14FEA1040835814BF23EA4D
:102B2000010119438150704780B541F20402C4F29B
:102B30000202136858B143F480331360136801280C
:102B40000BD123F4003C01204FF0000E0AE023F4E7
:102B5000803C00204FF0010E04E043F4003C0020D4
:102B60004FF0010EC2F800C01368002861F39543CE
:102B700018BF4FF0007013601368C1F3021161F3C6
:102B80005E73014618BF4FF080711360936ABEF107
:102B9000000F08BF014623F0E060BEF1000F08BF40
:102BA0000843906280BD000041F20000C4F20200C0
:102BB000016841F00101016001688907FCD54168A5
:102BC00021F00301416000BF416811F00C0FFBD1FF
:102BD00001684FF6FF72CFF6F262114001600021EA
:102BE000416041F61071C1624FF4801101634FF4EE
:102BF0001F0181607047000041F20401C4F202012C
:102C00000A6860F301020A607047000041F20400A4
:102C1000C4F202000068C0F38100704744F624014A
:102C2000C4F2010100220A600A688242FCD37047A4
:102C300044F6140CC4F2010C0022CCF8102042F629
:102C4000E062CCF81420DCF8002000EB800042F0B9
:102C50000102CCF80020DCF81020B2EB400F0CD2BF
:102C600043F200024000C4F200024AF6AA2300BF69
:102C70001360DCF810108142FAD37820CCF81400ED
:102C8000DCF8000040F00100CCF8000070470000C4
:102C9000B0B540F24871C2F2000144F6206008600D
:102CA00040F2604040F28C43C2F200000022C2F2C7
:102CB0000003026003E000BF01321E2A0ED003EBC6
:102CC000820553F822406D682C1BF5D00D68AC428C
:102CD00038BF0C60056825440560EDE740F2CD542F
:102CE000C2F20004016822784909012A016008BF84
:102CF000FFF730F940F23B75C2F200052878012851
:102D000008BFFFF78FF920782978084318BFB0BDB6
:102D1000FFF720F9FFF786F9B0BD0000026861F304
:102D2000000202607047000000210182C0E900112A
:102D3000C0E90211704700000021C4F202010968D5
:102D4000084018BF0120704702684BF6EF731A4025
:102D500002600A8903681A4302604A7C036802F031
:102D6000030223F4405343EA02320260CA7B036841
:102D700002F0030223F4406343EA822202608A7B6A
:102D8000036802F0030223F4407343EA0222026064
:102D90004A7B036802F0010223F0800343EAC21277
:102DA00002600A7B036862F3861303600A7C03688F
:102DB00062F3451303604A8942600A688260496889
:102DC000C1607047002A02680CBF22EA010111436A
:102DD0000160704701686FF007024CF6CD4352FA6C
:102DE00080F2CCF6CC43A2FB032321F00101016069
:102DF00000210422016041608160C1606FF0030026
:102E0000C4F2020200EA93000F21136801FA00F0F5
:102E10001843106070470000B0B58A1A8169D0E984
:102E200001CE03698C1804FB0E33046AD0F80CE061
:102E3000A342C8BF23466442551AA342B8BF2346E3
:102E40000EFB0531446A0CFB021102600EFB05F516
:102E5000A142C8BF21466442A142B8BF2146C0E991
:102E60000435C0E90621084603F0AAFBB0BD000006
:102E700040F20040C4F20100016841F40011016019
:102E80007047000042F20C01C4F202010860704772
:102E900042F21000C4F20200016841F080010160BA
:102EA0007047000042F20C00C4F202000168C9073A
:102EB0001CBF002070470168490744BF01207047CC
:102EC0000068C0064FF0020058BF032070470000A2
:102ED00010B50446FFF7E6FF2CB100BF18B9FFF7A5
:102EE000E1FF013CFAD1002C08BF042010BD000016
:102EF00010B542F21004C4F20204216841F002014C
:102F000021606060206840F0400020604FF0804009
:102F1000FFF7DEFF216821F00201216010BD0000F3
:102F200042F2040040F22311C4F20200C4F26751DD
:102F3000016048F6AB11CCF6EF510160704700001C
:102F400010B542F21004C4F20204226842F00102F9
:102F5000226001604FF48010FFF7BAFF216821F072
:102F60000101216010BD000080B501F08DFC01F071
:102F7000E3FC01F039FD80BD401A48BF4042704774
:102F80001C2040F25331C4F20100C2F2000100687B
:102F9000097800F08040B1B168B340F26440C2F2F9
:102FA0000000017840F21602C2F2000201311278EC
:102FB000CBB2934201701DD940F26A40C2F20000C8
:102FC000002101707047B0B940F26440C2F20000C5
:102FD000017840F21602C2F2000201311278CBB23F
:102FE0009342017098BF704740F26A40C2F20000FD
:102FF00000210170704740F26A40C2F2000001787F
:1030000001310170704700004FF47A61F72210FB24
:10301000021049F28061C0F29801B1FBF0F080B279
:1030200070470000B0B561B10C46451E002000BFDE
:1030300015F8012FC1B2104603F01EF8013CF7D17C
:10304000B0BD0020B0BD00002DE9F0410A88002A83
:1030500008BFBDE8F0814FF000084FF0030C4FF0BF
:10306000010E0024002508E0B8EB520F4FEA52028F
:1030700005F1010504F1020426D0D607F4D0066854
:103080000CFA04F7BE4306608E790368A64033430A
:10309000036043680EFA05F6B34343600B79466854
:1030A000AB40334343608368BB438360CB7986681E
:1030B000A34033438360C368BB43C3604B79C66896
:1030C000A3403343C360CFE7BDE8F081D0F800C030
:1030D0005B4303EB43022CEA0202594311430160B4
:1030E0007047000010B51C2303EA810E24234FF023
:1030F0000F0C11F0F80F08BF2023C4580CFA0EF182
:1031000024EA0101C150C15802FA0EF21143C15024
:1031100010BD000080B502F039F8FEF70DFAFEF799
:103120000BFBFEF793FBFEF7BDFAFEF771F9FEF716
:10313000EDFAFEF7CFFAFEF7CFFB02F0D7F880BD2D
:1031400010B540F25C40C2F20000006841F2240475
:103150007E28C4F200042FD320687C2810D840F2C7
:10316000DC50C2F200000088C0084A2808D840F2AB
:103170006870C2F200000068B0F5FA7F00D210BD9E
:1031800040F22201C2F2000120680988B0EB510F21
:10319000F5D340F25570C2F2000001780131CAB295
:1031A000652A017008D301F037FB40F26870C2F263
:1031B00000000021016010BD40F25330C2F2000057
:1031C0002268017840F25F00C2F2000040F25E73B4
:1031D00000290178C2F200031A800DD0D1B1007825
:1031E0001C21C4F20101012898BF01200A68520085
:1031F000C5D40138FAD10DE061B100781C21C4F2C8
:103200000101012898BF01200A68520058BF10BD73
:103210000138F9D101F000FB002040F2647140F266
:103220005E032060C2F20001C2F200030A881B782C
:10323000DA400A8044F20C41C4F2010188610A625A
:103240004860086840F00100086010BD2DE9F047B3
:1032500082B040F2E654C2F2000447F60041C0F6E4
:1032600000012046B02201F037FE607CA17C0138CD
:10327000B0FA80F040F28A434009C2F20003E27CD7
:103280001870481EB0FA80F040F26B484009C2F254
:103290000008012A88F8000005D140F26170C2F2EE
:1032A000000001210170207D617D0138B0FA80F0BD
:1032B00040F224094009C2F2000989F80000481EC2
:1032C000A27DB0FA80F040F210014009C2F2000184
:1032D0000870501EE37DB0FA80F040F2BA31400928
:1032E000C2F200010870042B28BF022340F2120131
:1032F000207EC2F2000142F62C450B70A0F10801BD
:1033000040F20E06C4F201052829C2F2000636D8A2
:10331000182809D340F29A27182190224FF47A6393
:10332000009701F065FA3080207EA0F10C010B2996
:1033300009D84FF47A670C2118224FF4FA530097FA
:1033400001F056FA3080207E00F0FC01082909D1F6
:1033500041F270770721102242F6E063009701F0F6
:1033600047FA3080308840F2C231C2F20001286052
:10337000088040F25801C2F20001088007E040F2E4
:10338000C630C2F200004FF47A6101802960607E8D
:10339000A0F13201642925D83C21328801EB50018B
:1033A00044F6D3535143C1F26203A1FB03170F212B
:1033B00001EB90005043A0FB030140F27802F809B2
:1033C000C2F20002108040F27A02C809C2F2000282
:1033D00010800A2000EBD11040F2B031C2F200019F
:1033E00008800BE040F27800C2F2000096210180D4
:1033F00040F27A00C2F2000055210180A07E14271D
:1034000000EB8000227F07EBC00040F27C07E17EEA
:10341000C2F2000740F27E0A3880C2F2000A501E53
:10342000637F8AF80010B0FA80F040F26D414009E5
:10343000C2F200010870581EB0FA80F040F24E76D9
:103440004009C2F200063070052001F075FE607878
:10345000002800F02F81A07F0B2888BF052001F0F5
:103460006BFEE07F40F240450138B0FA80F094F8FE
:1034700020104009C2F20005287040F2EE2000EB57
:10348000410040F2583194F82120C2F20001088036
:1034900040F2D66040F2563194F8223000EB420000
:1034A000C2F20001088040F25A3103F25E50C2F2CB
:1034B0000001088094F8230040F2543194F824204D
:1034C000C2F200010870501EB0FA80F040F23E4196
:1034D00094F825204009C2F20001087002F1FA00B8
:1034E00040F2680194F82620C2F200010880501EC4
:1034F000B0FA80F040F23F414009C2F2000108708A
:1035000094F8280040F24141C2F200010022431F1A
:10351000142B0A709EBF40F25E31C2F200010870A7
:1035200094F82900411E09299EBF40F25101C2F2C0
:103530000001087094F82A00411EC9B208292FD84A
:1035400040F25201C2F20001087000EB80006FF0FF
:103550002D01627EA1EB400040F2780352FA80F127
:10356000C2F200031980510840F27A0251FA80F148
:10357000C2F20002118040F2C431C2F200010A8896
:1035800040F2500352FA80F20A8040F2B431C2F2A3
:1035900000010A88C2F20003187052FA80F0088015
:1035A00094F82B00A0F1460146299EBF40F20C0181
:1035B000C2F20001087094F82C00411E62290BD859
:1035C00040F200014000C2F20001088040F2607049
:1035D000C2F200000121017094F82D00411E09295A
:1035E0009EBF40F25F31C2F20001087094F82E10C5
:1035F000092912D8042921D840F23B70C2F20000F8
:10360000DFE801F003731A1C790040F2CD51C2F2D9
:10361000000100220A7002700AE040F2CD50C2F2AE
:1036200000000021017040F23B70C2F20000017006
:1036300040F23C40C2F2000001210170388881084C
:103640004A2905D840F26C01C2F2000100220A703A
:1036500040F2DC51884201D3317851B140F2760119
:10366000C2F2000110220A7040F27501C2F200019C
:103670000A7048F21F51C5F2EB11A0FB01124FF284
:10368000F101CFF2F001A0FB01019AF80000202324
:10369000B3FBF0F052090909B2FBF0F240F26A0301
:1036A000B1FBF0F040F26401C2F20003C2F200018B
:1036B0001A800880388840F2E2474FF4967140F64D
:1036C000B83240F6C413009701F092F899F8001050
:1036D00040F25032C2F200020029108004BF0020E4
:1036E00088F8000002B0BDE8F08740F2CD50C2F289
:1036F000000001219BE740F23D40C2F200000121A1
:10370000017040F23C40C2F200000021017040F222
:10371000CD50C2F200008FE782B040F24E4944F231
:103720000C4544F2000B42F6004641F20007C2F29B
:1037300000090220C4F20105C4F2010BC4F2010623
:10374000C4F2000762B689F80000FFF7E3FC3046D8
:103750000021012202F01AFB30460221012202F070
:1037600015FB30460421012202F010FB30460121F6
:10377000012202F00BFB30460321012202F006FB7E
:10378000304605210122052402F000FB306840F09C
:1037900001003060706C40F400407064706940F06B
:1037A00001007061DBF8000440F00100CBF8000478
:1037B000A86840F00100A860286820F00100286097
:1037C000D5F8F40340F00100C5F8F403386840F080
:1037D00001003860786940F00100786142F2000031
:1037E00089F80040C4F20000016841F00101016065
:1037F000416941F001014161C16841F00101C160CD
:10380000FDF77EFD062089F80000FFF71FFD40F25E
:10381000E650C2F20000C178012902D101795F2986
:1038200017D045F60171A0F8031044F64111C4F613
:103830004B71C0F8051042F24E01C3F24641C0F888
:10384000091043F22051C4F23511C0F80D1001F0F7
:1038500075FB40F26170C2F20000007840F2780C13
:10386000C2F2000C30B140F25C31C2F200010988B2
:10387000ACF8001040F20E0140F2B43EC2F200017A
:10388000C2F2000E0A88BEF8003044F6D356534305
:10389000C1F2620640F2C430A3FB0634C2F200005B
:1038A00040F28A470388C2F200073F785343A3FBE4
:1038B00006367B1E40F25007C2F2000718BF0123F4
:1038C00040F260013F78C2F200010B7007EBD413A5
:1038D00040F2C631AEF8003040F2240EC2F20001D0
:1038E000C2F2000E0A80F1099EF80030018040F219
:1038F000C230C2F2000002802BB940F26170002297
:10390000C2F20000027040F23F40C2F200000378B1
:1039100040F24E400722C2F20000027040F26B41BA
:1039200040F2BA3940F26C0640F2B03040F27A0709
:10393000C2F20001C2F20009C2F20006C2F20000A7
:10394000C2F200072BB340F2C4334FF47A72C2F2D2
:1039500000031A8001220A7040F261710023C2F252
:103960000001327040F210020B70C2F2000239887E
:10397000137002883231398002F13201BCF8002024
:10398000018002F132018EF8003089F80030ACF885
:10399000001040F26C7043F20006C2F200000024F6
:1039A000C4F200060480FDF7D5FD4AF6AA2040F2D5
:1039B0004E4130600820C2F200010870FDF78CFF14
:1039C000584600210122012602F0E0F9DBF8000050
:1039D00040F00100CBF8000001F08AFA40F2CC5030
:1039E000C2F20000007840F24E41002840F26270BE
:1039F000C2F2000040F20A7A40F2557940F228778C
:103A000040F2687B40F2524518BF06700920C2F2AE
:103A10000001C2F2000AC2F20009C2F200074FF42C
:103A20007A78C2F2000BC2F2000508700DE042F68F
:103A30000040C4F20100C0E90D44C463FEF7ECF994
:103A400040F23670C2F20000047043F20000C4F28B
:103A500000004AF6AA2140F24E420160C2F2000282
:103A600010780130C1B215291070C0F0E88040F222
:103A70003A40C2F20000008840F6E44440F20111EE
:103A80006043C0F21001A0FB011240F21101801A44
:103A9000C2F2000102EB50000978C00A484348F224
:103AA0001F51C5F2EB1140F2384640F25A72A0FBAA
:103AB0000101C2F20006C2F200023088127840F220
:103AC0004C7CC2F2000C40F23647BCF80030C2F227
:103AD0000007801A3F88308080B248F2E802C3EBCA
:103AE0008313504343F238123B44A2EB10304FF2A1
:103AF000CF32C3F38F1740F2FF45CCF63C726743D9
:103B0000C4F6EC7550FB02F0A7FB0575C21040F23D
:103B1000874602EBD070C2F2000640F284471930AB
:103B20003278C2F20007388040F26647C2EBC20228
:103B3000C2F2000710443A88C0083070C2EBC200DD
:103B400000EB5110C0083880980940F24C41ACF8A5
:103B50000000280AC2F20001088043F20000C4F20B
:103B6000000000F574400121FEF79CF840F23E4051
:103B7000C2F2000000783178002844F20C40C4F210
:103B80000100C0F8281445D040F2704040F26801AE
:103B9000C2F20000C2F2000140F2664200780988D9
:103BA000C2F200021288484390422DD940F2267397
:103BB000C2F2000340F254711888C2F20001097881
:103BC0004FF67C44013044F62067CFF6FF7482B292
:103BD00011FB0471914218801CDA0024AAF80040FD
:103BE000FEF71AF900F018FE40F23670C2F200003B
:103BF000047040F26C70C2F20000048040F2564043
:103C0000C2F20000047005E040F22670C2F200002B
:103C10000021018040F24E4140F2287740F2687B5B
:103C200040F252450020C2F200010024C2F2000717
:103C30004FF47A78C2F2000BC2F20005087040F22D
:103C40006B40C2F20000027840F2CD50C2F2000098
:103C50000078012A89F8004008BF002806D039887A
:103C6000002A18BF00282FD12980F4E140F23F40FC
:103C700040F25432C2F20000C2F20002017812781F
:103C80003888002908EB420141D0814280F0F08061
:103C900040F26002C2F20002137840F28A42C2F29D
:103CA00000021278934240F0D08040F23673C2F2A4
:103CB00000031B782C80002B00F0C08040F235738D
:103CC0000122C2F20003BFE0B1F5836F6CD340F272
:103CD0006000C2F20000017840F28A40C2F20000A7
:103CE0000078814255D140F2220140F25032C2F2B6
:103CF0000001C2F2000209881288914233D840F2D2
:103D00005471C2F20001097869BB3C8041E08142F4
:103D100080F02E8140F26000C2F20000017840F293
:103D20008A40C2F200000078814240F25431C2F26F
:103D3000000140F00C8140F2220140F25032C2F208
:103D40000001C2F2000209881288914200F2E58067
:103D500040F25471C2F200010978002940F0DD8080
:103D6000A7F80080EFE040F26001C0F10100C2F26C
:103D70000001087040F22A710120C2F20001CBF864
:103D80000040087000F048FD40F26E40C2F20000B2
:103D9000047040F25231C2F2000138880978C1EB58
:103DA0004000A0F60100288038883038C0087C2800
:103DB0003FD840F28A40C2F2000040F26001007831
:103DC000C2F200010978C0F101028A4227D140F213
:103DD000220140F25032C2F20001C2F20002098810
:103DE0001288914207D840F25471C2F2000109785A
:103DF00009B93C8013E040F22A720121C2F20002AC
:103E0000117040F26001C2F20001CBF8004008706E
:103E100000F002FD40F26E40C2F20000047040F279
:103E20005231C2F2000138880978C1EB40003138C4
:103E3000288038882F2840F208810CE140F2600386
:103E4000C2F10102C2F200031A7040F23572C2F2EE
:103E50000002127862B940F2FF754FF4FA622F2324
:103E6000009540F25245C2F2000500F0C1FC2880E6
:103E700040F25430C2F2000001783888A8EB4102C9
:103E8000824235DD40F28A41C2F2000140F2600315
:103E90000978C2F200031B78C1F101079F4211D1DA
:103EA00040F23673C2F200031B782BB140F2357337
:103EB0000121C2F2000303E040F26003C2F20003FA
:103EC00019702C8040F23571C2F20001097840F27D
:103ED0002877C2F2000759B92F25002140F2FF735D
:103EE000009540F25245C2F2000500F081FC2880A6
:103EF00040F25430C2F2000001783888A8EB410249
:103F0000824200F2A88008EB41018142C0F0A38008
:103F100040F23570C2F200009BE040F26001C0F157
:103F20000100C2F20001087040F22A710120C2F2C1
:103F30000001CBF80040087000F06EFC40F26E40CB
:103F4000C2F20000047040F25431C2F2000109785C
:103F5000388808EB41014FF4FA622F2340F2FF75D5
:103F6000009500F045FC40F25245C2F20005288061
:103F700040F25432C2F2000210783988A8EB4000B7
:103F8000884258DD40F28A40C2F2000040F26001EF
:103F90000078C2F200010978C0F101024FF47A738F
:103FA0008A422AD140F2220140F25032C2F200018C
:103FB000C2F2000209881288914207D840F2547177
:103FC000C2F20001097809B93B8016E040F268713D
:103FD000C2F2000140F22A720C600121C2F200021A
:103FE000117040F26001C2F20001087000F014FC90
:103FF00040F26E40C2F20000047040F25438C2F247
:10400000000898F8001038884FF47A72A2EB410249
:10401000002140F2FF732F25009500F0E9FB40F2EC
:10402000524540F2687B4246C2F200054FF47A786E
:10403000C2F2000B288011783888A8EB4102824236
:1040400009D808EB4101814205D340F26E40C2F22B
:1040500000002C8004702888DBF80030C8284FF05E
:10406000000138BF0121642B4FF0000288BF0122FC
:10407000B3F57A7F02D808B1114004D040F269410B
:10408000C2F200010C7040F26171C2F200010978C5
:104090009F2806D800291EBF40F26942C2F20002E2
:1040A000147040F28642C2F20002127842B1030953
:1040B000182B0ED840F26943C2F200031C7008E0CE
:1040C00040F21703C2F2000395288CBF0A2664262B
:1040D0001E7040F2BA33C2F200031B7803B340F201
:1040E000170740F26943C2F200076426C2F20003D8
:1040F0003F7872431B7801327A4340F22877C2F24C
:1041000000079A420CD2FDF787FE00F085FB40F2D3
:104110006940C2F200006621AAF800400170A3E0E5
:1041200081B31D2898BFAAF800401F2811D340F280
:104130005E31C2F20001097801EB81018A008242FE
:1041400007D91E212F23A026009600F051FBAAF8C4
:10415000000040F25E30C2F200000178288801EBD6
:1041600081018900814200F27F804FF4FA654FF4AB
:10417000FA62A023009540F25245C2F2000500F019
:1041800037FB6FE040F26271C2F20001097800294A
:1041900068D040F2CC51C2F200010978B1B340F2CC
:1041A0000801C2F200010B6840F20401C2F20001F2
:1041B0000F682F2140F2FF72009700F019FB40F2C8
:1041C0007E01C2F2000148F200720978C0F2933217
:1041D00092FBF0F049082A8890FBF1F040F256710A
:1041E0002E2AC2F2000108801BD840F26030C2F2D1
:1041F0000000046040F21070C2F2000040F2287724
:10420000AAF800400460C2F200072DE040F21070EE
:10421000C2F2000007684EF200063846C4F2F946C2
:1042200009E040F21070C2F2000007684EF200068A
:104230003846C4F2FF46314602F09DF8002818BF08
:104240003E46304602F0A0F90021AAF800003846A8
:10425000C4F2402102F081F840F22877C2F2000750
:1042600010B93020AAF8000040F25470C2F20000E9
:10427000007800284CD0BAF800003128C0F05481F2
:1042800040F25641C2F200010978002900F04C8149
:10429000882800F2858140F236710120C2F20001C7
:1042A000087000F0B9FAFDF7BFFDFDF713FD40F20D
:1042B0007E00C2F20000017841F65832BAF80000E0
:1042C000B2FBF1F3B8FBF1F730217822009700F050
:1042D0008FFA40F2B836C2F20006308080B2FEF7A4
:1042E0009DFC30884FF41671B1FBF0F140F2E452BE
:1042F000B428C2F20002118000F2C6814FF4B471FA
:10430000484340F2E051C2F200010860C3E100BF3F
:1043100040F2E050C2F20000006840F2367148F20C
:10432000A062C2F20001C0F20102097892FBF0F033
:104330004CF6CD42484300EB4000400081B2CCF641
:10434000CC42A1FB021240F2E451C2F2000108800B
:1043500040F26C00C2F200000178D008002940F25F
:104360001471C2F20001088020D040F2C23740F23E
:104370006A0140F2640240F2C433C2F20007C2F2A2
:104380000001C2F20002C2F200033F8809881288CD
:104390001B8880B2009740F22877C2F2000700F035
:1043A00027FA40F25801C2F20001088040F287402B
:1043B00040F20C01C2F20000C2F20001007809785C
:1043C000884214D940F2C232C2F200021388012797
:1043D00001F114025B08009740F22877C2F200074F
:1043E00000F006FA40F25801C2F200010880DBF842
:1043F000000064284FF00C0014D340F22201C2F2F6
:1044000000010988B1F5FA7F0CD840F25C40C2F295
:104410000000006864214FF4FA7204230C26009611
:1044200000F0E6F940F22201C2F200010988642995
:1044300040F27C01C2F2000138BF022009888908DD
:10444000E02940F25F01C2F20001087005D840F295
:104450005F014000C2F20001087040F22A70C2F20F
:104460000000007870B340F23670C2F200000078AD
:1044700040B300F0D1F9FEF783FD40F26670C2F25E
:1044800000000078F0B940F25330C2F20000017829
:1044900040F26A40C2F200000078002907BF40F2F3
:1044A0007501C2F2000140F27601C2F20001097802
:1044B000884207D940F266710120C2F200010870FB
:1044C00001F064FE41F20000C4F20000406A4CF2C8
:1044D00051318842FFF4B9AA40F23670C2F20000AE
:1044E000007801287FF4B1AA40F26941C2F20001CC
:1044F00008780130087000F08FF9BAF8000040F237
:104500002A712F284FF00100C2F2000108709EBFEF
:1045100040F23670C2F200000470CBF8004001F0A7
:1045200035FEFFF792BA00BF40F26D40C2F20000C4
:10453000007800283FF47BAA40F20E0040F25101BF
:10454000C2F20000C2F200010088097840F2C632CF
:1045500000EB4101C2F20002133912888BB25A43B8
:10456000B2FBF0F240F2DC53C2F200031980801A71
:1045700040F250410130C2F20001088042F6004191
:1045800080B2C4F20101C1E90D00C86300F068FC0B
:1045900040F235710120C2F200010870FFF750BAF5
:1045A000FDF798FBBAF80000C9280AD340F22E7034
:1045B000C2F20000048040F2B830C2F20000502184
:1045C000018040F2B830C2F200000088FEF726FBFE
:1045D00040F22E70C2F20000008800287FF435AA55
:1045E00040F25470C2F2000040F2367104700120B3
:1045F000C2F20001087040F22A71C2F20001087094
:1046000040F22200C2F2000042F22831018040F262
:104610005C40C2F20000016040F21870C2F200007B
:10462000016041F20000C4F20000416240F220004B
:10463000C2F20000007840F24E7140F2B632C2F28F
:104640000001C2F20002097810700A20CBF80000C5
:1046500040F23570C2F20000047049B140F2B0304F
:10466000C2F20000008840F27A01C2F20001088024
:10467000FDF742FD42F60041C4F20101486940F0F5
:1046800001004861FFF7E1B940F2E050C2F20000DA
:104690004FF6FF71016040F22877C2F20007FFF782
:1046A000D4B9000010B540F24244C2F200042070B8
:1046B000080ADDF808C06070100AE070180A60711E
:1046C0004FEA1C20A170E071204609212271A371DC
:1046D00084F808C0FEF7A6FC607210BDB0B540F2C9
:1046E0003871C2F20001088840F2D45EC2F2000EB6
:1046F00020B1CEF80000002008802BE040F2367098
:10470000C2F20000007840F2E05C0028C2F2000C27
:1047100004BF4FF6FF70CCF80000DCF8003040F228
:1047200040721020C2F20002002400BF411E43FA72
:1047300001F5012D04D0092908461460F6D801E0DE
:10474000093810601068DCF80010014141EA40208F
:10475000CEF80000DEF8004000220323214600BF0F
:1047600088B24240013B4FEA1011F9D102F00F002C
:1047700046F66A12C0F60002C4F3031344F3132191
:10478000D35C515C40EA04109B0280F00F0043EAC6
:10479000C13104F00F03CEF80000D35C00F00F002D
:1047A000105C41EA431140F2986C084340F20071FA
:1047B000C2F2000CC2F200014FF04E0E63460860D8
:1047C00043F810EF132101224E2400BF02FA01F535
:1047D0000540CD4085EA941404FB0EF401394D1CCC
:1047E00043F8044FF2D10020CCF80C00B0BD00001B
:1047F00080B5DDF808C08842B8BF08469042C8BFFF
:104800001046A0EB010EACEB03000EFB00F0511ABA
:1048100090FBF1F0184480BD40F20040C4F201006A
:10482000016821F4001101604FF4001141617047EB
:1048300070B514460D460646FDF7A6F829462246F1
:10484000FCF7A0FE01463046FDF7A6F83046FDF71E
:104850007FF870BDB0B52824C4F6000404F5767066
:104860000121002202230225FEF730FC4FF0904088
:10487000012100224FF48063C4F800544FF4806596
:10488000FEF724FC2560B0BDB0B52824C4F60004B2
:1048900004F576700121002202230225FEF716FCA2
:1048A0004FF09040012100224FF48063C4F8F05390
:1048B0004FF48065FEF70AFC2560B0BDB0B540F24C
:1048C0002400C2F20000007840F20044C4F6000464
:1048D00030B12046022100220223FEF7F7FB07E059
:1048E00020460121002202230225FEF7EFFBA562EC
:1048F0004FF09040022100224FF48063FEF7E6FB68
:10490000B0BD0000B0B52824C4F6000404F57670EC
:104910000121002201230125FEF7D8FB4FF0904032
:10492000012100224FF40073C4F800544FF40075C5
:10493000FEF7CCFB2560B0BDB0B52824C4F600045A
:1049400004F576700121002201230125FEF7BEFB4C
:104950004FF09040012100224FF40073C4F8F0534F
:104960004FF40075FEF7B2FB2560B0BDB0B540F264
:104970002400C2F20000007840F20044C4F60004B3
:1049800030B12046022100220123FEF79FFB07E001
:1049900020460121002201230125FEF797FBA56295
:1049A0004FF09040022100224FF40073FEF78EFB7F
:1049B000B0BD0000B0B54FF090400121002280232F
:1049C0008024FEF783FB2825C4F600054FF09040B5
:1049D000012100224FF480732C604FF48074FEF7A5
:1049E00075FB2C60B0BD0000B0B54FF090400121C8
:1049F000002280238024FEF769FB1825C4F60005F9
:104A00004FF09040012100224FF480732C604FF44E
:104A10008074FEF75BFB2C61B0BD000010B540F266
:104A20002400C2F20000007838B14FF0904002211B
:104A300000228023FEF74AFB0BE04FF0904001215B
:104A4000002280238024FEF741FB2820C4F60000CA
:104A500004604FF09040022100224FF48073FEF773
:104A600035FB10BD80B541F60033C0F2B70342F606
:104A70002842B3FBF0F0C4F201020A23136080B2B3
:104A800040F268435060C2F200031B78584344F67A
:104A9000D353C1F26203A0FB03030846190AC2E91B
:104AA00003115161FEF7C4F880BD00002DE9F04309
:104AB00081B042F62848C4F201084FF47A60C8F881
:104AC0000400EFF3108072B600F028FB43F20009F7
:104AD0004CF6CD447725C4F200094AF6AA27CCF655
:104AE000CC440A26A5FB04010809C9F80070FDF7AB
:104AF000CFFA06EB5500C8F800000A20FEF798F838
:104B0000023DEFD8FDF788F9002040F20E02C8F808
:104B10000000C2F2000240F244711288C2F20001A9
:104B20000880C8F8042062B601B0BDE8F083000038
:104B30002DE9F04F81B043F200080320C4F20008D1
:104B4000FDF7A6FA40F2447440F2E6554FF0000932
:104B50004AF6AA26C2F20004C2F200054FF0000A8B
:104B6000002706E001370AF134000AF1020AAE28F4
:104B700049D2C8F8006005EB0A0090F834B0A4F8F8
:104B80000090BBF1FF0FEDD090F8350050B3FEF769
:104B90003BFA054601F02CFD0646F8B2C0EBC0100A
:104BA0000BEB400001F00CFD07460020C4F27A40F8
:104BB00031464FF0000901F0F1FB394601F094FD58
:104BC00001F0E2FC0146284640F2447440F2E6550A
:104BD000C2F20004C2F200054AF6AA26FFF742FF1D
:104BE0000027C0E7F8B2C0EBC0100BEB400042F664
:104BF00028410027C4F2010180B2C1E903774F6167
:104C0000FEF716F8AFE7FDF707F942F62842002055
:104C1000C4F2010240F20E011060C2F200010988E4
:104C2000516020804AF6AA20C8F8000001B0BDE813
:104C3000F08F000010B542F62844C4F201044FF48E
:104C40007A6060602820206000F068FA0220FDF79A
:104C50001FFA9620FDF7ECFF43F20000C4F20000BB
:104C60004AF6AA210160502020609620FDF7E0FF5F
:104C7000FDF7D2F8002040F20E022060C2F20002DE
:104C800040F244711288C2F200010880626010BDD7
:104C900010B542F62844C4F201044FF47A60606013
:104CA0003220206000F03AFA0220FDF7F1F9962058
:104CB000FDF7BEFF43F20000C4F200004AF6AA214D
:104CC00001601E2020609620FDF7B2FFFDF7A4F8DA
:104CD000002040F20E022060C2F2000240F2447155
:104CE0001288C2F200010880626010BD10B5EFF3B7
:104CF000108072B642F62844C4F201044FF47A6080
:104D0000606043F20000C4F200004AF6AA2101608C
:104D10005020206000F002FA0320FDF7B9F964206A
:104D2000FDF786FF462020606420FDF781FF2820E4
:104D300020606420FDF77CFFFDF76EF8002040F254
:104D40000E022060C2F2000240F244711288C2F2E8
:104D500000010880626062B610BD000070B542F6C6
:104D60002844C4F201044FF47A606060EFF31080CD
:104D700072B643F20005C4F200054AF6AA263C20AA
:104D80002E60206000F0CAF90120FDF781F94B2068
:104D9000FDF74EFF502020604B20FDF749FF5A20C1
:104DA00020604B202E60FDF743FFFDF735F8002013
:104DB00040F20E022060C2F2000240F244711288FA
:104DC000C2F200010880626062B670BDB0B5EFF358
:104DD000108072B647F63040C0F60000007842F608
:104DE000284543F20004C4F20105FF28C4F2000480
:104DF00002D0FFF79DFE28E04FF47A60686000F073
:104E00008DF90320FDF744F937202860C820FDF70D
:104E10000FFF0520FDF73CF94AF6AA202060282064
:104E20002860C820FDF704FF0620FDF731F919209E
:104E30002860C820FDF7FCFEFCF7EEFF40F244714D
:104E40000020C2F200012860088040F20E00C2F289
:104E50000000008868604AF6AA20206062B6B0BDF3
:104E6000B0B54FF09040012100224FF480634FF421
:104E70008064FEF72BF92825C4F600054FF090401A
:104E8000012100224FF400732C604FF40074FEF7F0
:104E90001DF94FF09040012100224FF480732C60E7
:104EA0004FF48074FEF712F92C6005F576742046F5
:104EB000022100220223FEF709F9204602210022E6
:104EC0000123FEF703F94FF09040022100228023D6
:104ED000FEF7FCF8B0BD0000012AB8BF70470138EA
:104EE00011F8013B013A00F8013FF9D17047000089
:104EF00080B5FCF7E1FF44F20000C4F2010000219C
:104F00005822416200F13401C4F20202916040F281
:104F10008C41C2F20001D16040F21C01C2F20001DA
:104F200009685160C16841F40071C160016841F0D5
:104F30000101016040F68B10106080BD80B540F229
:104F40005A0040F28A42C2F20000C2F20002017826
:104F500040F2E6501278C2F200004170511E40F259
:104F60006B42C2F20002B1FA81F112784909417430
:104F7000511E40F26172C2F20002B1FA81F1127860
:104F800049098174511E40F22402C2F20002B1FAB2
:104F900081F112784909C174511E40F21002C2F227
:104FA0000002B1FA81F1127849090175511E40F2EF
:104FB000BA32C2F20002B1FA81F1127849094175A0
:104FC000511E40F21202C2F200021278B1FA81F1CF
:104FD0004909C27547F600428175C0F60002B0214A
:104FE00000F002F880BD00002DE9F04F03AF83B060
:104FF0008046C81701EB90704FEAA00920F003002B
:10500000073020F007001446ADEB00050E46AD4614
:1050100028464946FCF7E8F8042E0ADB281FA8F1C9
:1050200003024946D2F80330043240F8043F013904
:10503000F8D147F8109CFDF773FFA00502D1204678
:10504000FDF756FF002047F8140C47F8180C57F8E6
:10505000180C57F8101C884218D200BF57F8180CCB
:1050600057F8181C04EB800055F82110FDF768FF75
:105070000320FDF707FF57F8180C013047F8180C0C
:1050800057F8180C57F8101C8842E7D3FDF700FFBB
:10509000A7F10C04A546BDE8F08F000080B5FCF731
:1050A00031FF44F20000C4F20100582200F1340143
:1050B000C4F20202916040F29861C2F20001D16034
:1050C0001A215160116841F002011160116841F02C
:1050D00008011160116841F001011160C16841F4DB
:1050E0000071C160416C41F400414164016841F0CC
:1050F0000101016080BD00001C20C4F202000168B3
:1051000021F00101016040F27F01C2F20001097843
:105110004160016841F001010160704740F2684060
:10512000C2F20000007842F63441C4F20101C1E944
:1051300000008860704700000B2828BF0B2040F259
:1051400068414000C2F200010870704710B540F29B
:105150003674C2F20004207810B1FDF789FE10BD4C
:10516000FCF7CAFF40F22200C2F2000042F21071C6
:10517000018041F22400C4F2000041F28831016054
:1051800001202070FDF774FE10BD000080B542F2D2
:105190000000C4F2020040F253110160FDF704FD6B
:1051A00000200121FDF7B6FB0120FDF787FC012857
:1051B000FAD100201D21FDF7B7FC02200121FDF7E7
:1051C000A9FB00BF1920FDF779FC0128FAD10020C6
:1051D000FDF76AFB0020FDF783FB0020FDF772FB63
:1051E0000120FDF78BFB0220FDF706FDFDF70EFD0C
:1051F0000228FBD10020FDF781FB00F001F880BD03
:10520000B0B541F2040441F20025C4F20204C0F238
:105210007A05FDF7FBFC02280CD000284ED1206D4A
:1052200080054BD5E06A800144BF46F60045C0F2D8
:10523000DC2543E02068A16AC0F30040002919D4AE
:1052400021682268C1F38341C2F341721301013323
:10525000002A1A4608BF02220F2908BF1A46002852
:1052600002EB01001FD140F60011C0F23D0100FB2E
:1052700001F523E0A26AA36AC2F3031CA26A40F606
:105280000011C0F23D01C3F30823002802F007001B
:1052900003D02268920358BF294659430CFA00F004
:1052A000B1FBF0F50AE02168890301D4454305E02C
:1052B00040F60011C0F23D0100FB01F540F2BC30A8
:1052C000C2F200000560216804A2C1F30311515C21
:1052D000026822FA01F10160B0BD00BF00000000C9
:1052E000000000000102030406070809F0B587B0BA
:1052F0000E20C0F218000121FDF7EEFB1220C0F2D3
:1053000014000121FDF7E8FB4FF4A0100121FDF787
:10531000E3FB40F20010C0F2021040F2004406909D
:105320004020C4F60004059005A92046FDF78CFE38
:105330002046062100220027FDF7D4FE1C25C4F2DA
:1053400002052846FDF746FD6E463046FDF7ECFCAB
:1053500040F27F00C2F20000007843F60004ADF88E
:105360000A001020ADF8080040F24240C2F20000EE
:10537000C4F201040190201D00904FF4807003904E
:1053800028463146ADF81070FDF7DEFC20464FF49C
:10539000E1310022002300F097FE2046012100F0B9
:1053A000EBFE2046012100F0D3FE2046012100F053
:1053B000D9FE2046012100F073FE2046012100F0B5
:1053C00079FE07B0F0BD00002DE9F04F81B040F24A
:1053D0005C79C2F20009B9F80000013081B2B1F580
:1053E0007A7FA9F8000009D940F26C44C2F20004A7
:1053F000207818B9FFF7EAFC01202070B9F8000006
:1054000042F2117140F24C4840F280478842C2F2A9
:105410000008C2F200074BD3B8F80040204601F064
:10542000E7F80021C4F2B43100F0B8FF3968024651
:105430000846114600F01AFF40F2D051C2F20001B6
:105440000A783860032A0CD0022A1BD0012A2CD1FA
:1054500040F28740C2F200000078022200F500709E
:105460001DE040F26640C2F20000008848F21F5280
:10547000C5F2EB12A0FB0202D008042262F31F2047
:1054800001220CE048F21F5204F0FE00C5F2EB12BC
:10549000A0FB02024FF4C06040EA1210032240F267
:1054A0003873C2F2000318800A700020A9F80000C7
:1054B00040F25640C2F20000007840F20C7A002818
:1054C000C2F2000A64D19AF80000002860D040F2CD
:1054D0005240C2F20000008830B140F25840C2F29F
:1054E00000000021018053E040F25840C2F2000069
:1054F000018842F2117301318AB29A42018047D386
:1055000040F26C71C2F2000109881F292ED340F2CB
:105510007044C2F2000420780121002840F2564075
:10552000C2F20000017025D140F23E40C2F20000FC
:105530000078F8B140F26640C2F2000000884DF2F7
:10554000B9324108CBF21F12A1FB0212D109B0F50A
:10555000B97F217010D30025FFF7C8FB6420FDF749
:1055600067FB207801358542F6D305E000218AF8F3
:105570000010B7E7FFF7BAFB40F23B70C2F2000041
:10558000007828B940F23F40C2F2000000210170CB
:1055900040F24040C2F20000007840F23A75C2F298
:1055A0000005A8B140F25870C2F2000040F2C032CB
:1055B0000188C2F20002127801318BB202EB820242
:1055C000B3EB420F018003D9012129700021018032
:1055D00040F25470C2F20000007840F2687340F26A
:1055E0005C460028C2F20003C2F2000640F01683B7
:1055F00040F25640C2F20000007840F20A7540F2D4
:10560000617B40F23574C2F20005C2F2000B4FF02C
:105610002F0A0028C2F2000400F0E8809BF8000086
:10562000298800EB80000AEB0010884200F2DE803F
:1056300040F23674C2F200042078D0B9FCF7ECFBDB
:1056400040F22A70C2F200000078002808BFFFF77D
:105650007DFD0120207040F27800C2F20000008839
:1056600040F21E7140F20A75C2F20001C2F200055A
:10567000088040F27A0840F20E019BF80020C2F246
:105680000008C2F200012888B8F8003034460E88BD
:105690008921002A40F2FF7208BF2F21009626467A
:1056A000FFF7A6F8B9F800104CF6CD42CCF6CC4284
:1056B000514349F699124FEA7101C1F6991240F22D
:1056C000DC549142C2F2000420807AD840F260702B
:1056D000C2F20000007888B340F23670C2F20000D7
:1056E000007858B340F24C40C2F20000018840F20A
:1056F0000000C2F2000000886422424340F2280009
:10570000C2F20000FDF788FB44F20001C4F21C6104
:1057100000F044FE00F038FF40F2C831C2F2000150
:105720000A88101AB8F8002003B29342B8BF104696
:10573000228803B29342C8BF1046088040F24E70E0
:10574000C2F200000078E0B340F23670C2F200000E
:105750000078B0B340F22200C2F20000018840F2AB
:10576000B230C2F20000028840F28830C2F200007B
:10577000FDF752FB44F20001C4F21C6100F00EFE82
:1057800040F25078C2F20008D8F8001002460846ED
:10579000114600F06BFD0021C4F21631044600F002
:1057A000D5FD00281CBF0024C4F216342046002179
:1057B000C8F80040002400F0C9FD002808BFC8F860
:1057C000004040F23F40C2F20000007840F24C48F6
:1057D00040F20A7540F23574C2F20008C2F20005C8
:1057E000C2F20004002804BF002020709BF80000D3
:1057F000298800EB80000AEB001040F20C7A40F29E
:10580000DC598842C2F2000AC2F2000940F2FA8072
:10581000A34640F23474C2F20004207890B101280B
:1058200005D1FFF735FA40F20A75C2F2000520787B
:10583000022805D1FFF7FEF940F20A75C2F2000511
:105840000020207040F22400C2F2000000780028FE
:105850004AD040F23670C2F2000000785C46002860
:1058600066D040F2B630C2F2000040F25C0100782F
:10587000C2F200010988C0EB001001EB8000A0F12A
:105880003C010AB2B2F5B47FA8BFA0F5D27140F2D4
:105890002E70C2F20000018001F1770002B2B2F571
:1058A000B47F40F23072A8BFA1F1F100C2F2000251
:1058B000108001F1EF0002B2B2F5B47FA8BFA1F1F0
:1058C000790040F26171C2F20001097840F232724F
:1058D000C2F20002012940F254711080C2F20001AC
:1058E00004BF012008708DE040F23670C2F2000063
:1058F0000178002000295C46A9F8000060D140F240
:105900006D4340F22A71C2F20003C2F2000101228B
:105910001B780A7040F26871002BC2F20001086027
:105920004AD0FDF721FB40F20A75C2F2000547E0BC
:1059300040F22A70C2F200000121017040F268704A
:105940000024C2F20000046040F26D40C2F2000088
:10595000007840F26441C2F20001A9F800400C70E6
:1059600000B340F26170C2F2000000785C4600288B
:105970007FF477AF40F20E0040F25101C2F2000016
:10598000C2F200010088097800EB41001338A9F841
:105990000000FFF765FA40F20A750120C2F2000527
:1059A00020705EE7FCF738FA40F20A75C2F2000593
:1059B000A9F800405C4654E72078002800F0B88140
:1059C00040F23F40C2F200000078D8B12078C8B160
:1059D00040F22870C2F2000001884FF47A70FDF79F
:1059E000CBFA00F57A7081B2B1F5FA6FA9F8000030
:1059F00002D1FDF7B9FA01E0FFF732FA40F20A7579
:105A0000C2F2000594F800B0BBF1000F40F09C809A
:105A100040F24E7140F26870C2F20001C2F2000022
:105A200009780068142222FA01F1884215D240F266
:105A30007800C2F20000B9F800100088814238BF37
:105A4000A9F8000040F2B430C2F20000B9F800102A
:105A50000088814288BFA9F8000040F25800C2F2D5
:105A60000000B9F800100088814288BFA9F8000042
:105A700040F26070C2F20000007860B140F2C830BD
:105A8000C2F20000B9F80010B0F900008142C4BFB2
:105A900080B2A9F8000040F25070C2F20000046821
:105AA0000021204600F060FC80B940F2DC50C2F2D8
:105AB0000000B1460688204600F066FD30444E46A0
:105AC00040F2DC59C2F20009A9F8000040F274006B
:105AD000C2F20000007840F20A75C2F2000598B3E5
:105AE0003168B9F80020B1F5FA7F40F21E71C2F2B8
:105AF000000109884FF01E00A2EB010388BF0A20B5
:105B0000834240F26D03C2F20003187010DD40F2D0
:105B10002202C2F2000212880844B2F5FA7FA9F804
:105B200000000BD940F25E00C2F2000001210AE041
:105B30008A1A8242C4BF081AA9F8000040F25E0027
:105B4000C2F200000021017040F25640C2F2000093
:105B5000017840F23670C2F20000007840F2C6349C
:105B60000029C2F2000418BF002810D1BBF1000FB9
:105B700036D040F20E00C2F20000B9F800102288C0
:105B800000885143B1FBF0F1401A01302BE0298825
:105B90003029EBD340F21000C2F20000007890B13F
:105BA00040F20E0140F22200C2F20001C2F20000F7
:105BB00035460E88008873086021C82200962E465C
:105BC000FEF716FE208040F20E02B9F80000218890
:105BD000C2F2000212884843B0FBF2F0013002E04A
:105BE000C0EB0010800040F25041C2F2000108807A
:105BF000B9F8001040F21E72C2F2000240F268735F
:105C00001180218842F63442C2F20003C4F201023C
:105C100080B242F8081CC2E90000906040F2E050F7
:105C2000C2F2000040F28844006845F25651C2F2C8
:105C30000004C5F25551227850FB01F040F23A7B46
:105C400000EBD071C2F2000B3160AAB318680B28C8
:105C500032D340F21879C2F20009D9F800001D468B
:105C6000FDF78AF931680A097C2A21D84A0890424E
:105C70001ED940F28942C2F200021378002001339B
:105C8000137040F23672C2F2000240F278032860CC
:105C9000107040F22A70C2F20003C2F2000001222A
:105CA0001B88027040F21E725808C2F20002108077
:105CB00000202070C9F800109BF80000F8B140F2F5
:105CC0008740C2F20000047840F26640C2F2000051
:105CD00005883868B8F8006000F056FC40F2E451DE
:105CE000C2F200010F88034620462946324600973B
:105CF000FEF7D8FCFFF700FA00208BF8000040F216
:105D00004471C2F20001088841F28933421C90B20A
:105D100098420A8009D340F25641C2F20001097844
:105D200049B946F2A911884205D201B0BDE8F08F09
:105D3000FCF772F8F7E5FCF76FF840F256410020E7
:105D4000C2F20001087040F20A71C2F2000108803C
:105D500040F26C71C2F20001088042F63441C4F294
:105D600001018AF8000008604860886044F224015C
:105D7000C4F201014860086040F28C40C2F20000A9
:105D80004FF48071FBF730FAFBF720FE062988BF3D
:105D90007047DFE801F0040B131B232B330050F88E
:105DA000203F02F0010123F001022EE050F8203FD5
:105DB000042101EA820123F0040226E050F8203F8A
:105DC000102101EA021123F010021EE050F8203FDA
:105DD000402101EA821123F0400216E050F8203FF2
:105DE00002F00101090223F480720EE050F8203F16
:105DF00002F00101890223F4806206E050F8203F9E
:105E000002F00101090323F480521143016070473D
:105E1000062988BF7047DFE801F0041B071B0A1B37
:105E2000120050F8183F04E050F8183F09E050F80D
:105E30001C3F082101EAC20123F0080206E050F8E5
:105E40001C3F02F00101C90223F40062114301600A
:105E500070470000026801F0010122F0800242EA6E
:105E6000C11101607047000010B542F6FF31C4F265
:105E70000101884216DD44F2FF31C4F201010B2416
:105E80008842C0F20C0424DC42F60041C4F2010155
:105E9000884237D044F20001C4F20101884239D16E
:105EA00005342FE040F20041C4F2000188421FD0C7
:105EB00041F20001C4F2000188421FD042F2000109
:105EC000C4F20001884225D10120C0F21000C41D97
:105ED00018E044F20041C4F2010188420CD044F6BB
:105EE0000001C4F20101884218BF10BD073409E067
:105EF0000124C0F2100405E0063403E00120C0F2E2
:105F00001000C41C20460121FCF7FAFD20460021A8
:105F1000FCF7F6FD10BD0000F0B581B040F256442C
:105F2000C2F2000440F2DA502178C2F20000007898
:105F3000002918BF00280BD140F20C71C2F20001F9
:105F40000978012912D000294CD1FCF7A1FE18E0F4
:105F500040F22B70C2F20000007890B9FFF79EF873
:105F6000FEF7BCFBFCF79EF901B0F0BD68B140F252
:105F70002B70C2F200000078B0B3FEF7AFFBFCF765
:105F800091F9FEF7B5FF01B0F0BD40F2CD50C2F27D
:105F900000000078012803D1FCF784F9FEF7A8FF80
:105FA00040F23B70C2F200000078012818D11020A6
:105FB000C4F600000068400758BFFCF769FB44F2D4
:105FC0002000C4F20100016821F002010160FEF727
:105FD0008FFF5820C4F20200016841F00401016003
:105FE000207828B101B0F0BDFFF758F801B0F0BD3E
:105FF00040F25244C2F20004208840F26F45C2F2DF
:10600000000550B9297841B940F26C70C2F2000025
:1060100001880131018001B0F0BD40F26C7140F2A5
:10602000DD53C2F20001002298420A80DAD340F226
:106030002276C2F200063188FCF79EFF40F2966796
:10604000C2F200073978322801F10101C8BF0021EE
:10605000C8B2332839700BD340F20770C2F2000087
:10606000007828B9FEF722FD012028700020387042
:106070002088308001B0F0BD81EA000200204FF09E
:10608000070C00BFD1B28CEA4103120658BF4B0087
:10609000072800F101001A46F4D3D8B27047000077
:1060A000426901F0010122F0800242EAC11141611E
:1060B00070470000C26801F0010122F4005242EA78
:1060C0004131C160704700002DE9F04186B001AD5B
:1060D00004462846984616460F46FCF759FC43F6F8
:1060E000000105F10C00C4F201018C4208BF05F16A
:1060F000080000684CF6CD4100EB80004000B0FB8A
:10610000F7F0CCF6CC41A0FB0112D10801EB8103E2
:10611000A0EB43000428A0684FF0010388BF03EB05
:10612000D201C1EA0000A060E06806F0010120F49D
:10613000805040EA0130E060206908F0030120F45B
:10614000405040EA0130206106B0BDE8F081000017
:10615000C26801F0010122F0040242EA8101C1603B
:1061600070470000426901F0010122F0080242EA92
:10617000C101416170470000C26801F0010122F0D5
:10618000080242EAC101C1607047000010B541F247
:106190002400C4F20000016840F25E72C2F2000204
:1061A0001180002240F222040260C2F20004228820
:1061B00002EB420212FA81F18A08228040F21302B5
:1061C000C2F200021278C1F38F03B3FBF2F240F285
:1061D0005443C2F20003C1F3CE011A80891A40F27F
:1061E0006472C2F20002118089B200BF02688A4262
:1061F000FCD3FBF781FF40F26A40C2F200000021AD
:10620000017040F26440C2F20000017040F24E7032
:1062100040F23F4240F26871C2F20000C2F2000256
:10622000C2F20001007812780B68104303F10100FC
:1062300008600ED0142817D32088B0F5FA6F13D851
:1062400040F22A70C2F2000000210170FCF710FE3B
:1062500010BD1F2838BF10BD40F22A70C2F20000E6
:1062600000210170FCF704FE10BD000090EA010F50
:1062700048BF81F0004100F10A83421A3CBF801AF6
:1062800089184FEAD052A2EBD1534FF07F4C1CEA51
:10629000410F18BF9CEA026F00F03B804FF0004CAA
:1062A0004CEA00204CEA012121FA03FC10EB0C0C13
:1062B0001ED202F1FF325FEA1C2040EBC25038BF11
:1062C00070471CF07F0F4FEA400C18BFBCF17F4FA6
:1062D00038BF7047C3F12003994008BF20F0010088
:1062E000BCF17F4F38BF7047A0F1C04000F0C3BA87
:1062F0004FEA3C00000A40EBC25028BF1CF0FF0FE1
:106300004FEA400CE6D018BFBCF17F4F38BF704752
:10631000EAE79CEA026F05D010EA5C0F08BF00F0C4
:106320000040704710B500F060FA00BF64FBBE3E4D
:1063300010B500F0F5F80CBF0120002010BD10B51D
:1063400000F0EEF814BF0120002010BD10B500F0E1
:1063500063F98CBF0120002010BD10B500F05CF97E
:106360002CBF0120002010BD10B500F089F994BFAA
:106370000120002010BD10B500F082F934BF0120CB
:10638000002010BD401058BFC0F14040491058BF18
:10639000C1F140418142EFF3008070474FF47F0C20
:1063A0001CEAD0121EBF1CEAD11392EA0C0F93EA2A
:1063B0000C0F00F0858090EA010F48BF42F4807214
:1063C00040F4000C41F400002CF07F4120F07F40AD
:1063D00000B5A2EB030281420FF2081CACEB504E59
:1063E0009EF800E0C0F100004FEA4E0E00FB0EFCEC
:1063F00038BF49004FEA2C1C0CFB0EF34FEACE1EAF
:106400000EEB635E4FEA112C0EFB0CFC4FEAC12130
:106410004FEA1C5300FB031102F5FA024FEA112C5C
:106420000EFB0CFC4FEA01314FEADC4C00FB0C1177
:1064300042EB2242C14228BF09184CEB03335DF8FE
:1064400004EB10EB410143EBC250B2F57C0F38BFB7
:10645000704729D512F0F00F1CBF00F1C04000F0CA
:1064600000407047008182838485868788898B8C71
:106470008D8E8F919293959697999A9C9D9FA0A2AD
:10648000A3A5A7A8AAACAEB0B2B3B5B7B9BCBEC0FD
:10649000C2C5C7C9CCCED1D4D7D9DCDFE2E6E9EC9E
:1064A000F0F3F7FAFE0000004FEA400C0CF1807C9C
:1064B000BCF17E4F28BF7047B0F1C04000F0DBB99F
:1064C0000CEAD11390EA010F48BF42F48072624592
:1064D00038BF634507D213F47F0F16D080EA01005E
:1064E00000F00040704710B500F07FF9097EFC3ED7
:1064F00000F005B880EA010000F00040704780EA33
:10650000010000F0004000F0B6B912F47F0F04BFA4
:106510000248704780EA010000F0ADB90000C07F7A
:1065200050EA010C00F113801CF5000F58BFBCF5B8
:10653000000F01D48842704707D710F5000F58BFED
:1065400011F5000F15D488427047894270471CF539
:10655000000F04D5BCF5000FF7D5814270474FF00E
:10656000807C1CEB400F38BF1CEB410F01D28142F5
:10657000704710B500F039F9922449004FF00050EF
:106580004FF08051FFF7FEBE41000B0ED3F19E028B
:1065900008D950F400034FEA032323FA02F048BF5E
:1065A0004042704710B500F020F900BF49922480A6
:1065B000002070476FF0004282EA20007047000020
:1065C00010F0004148BF4042B0FA80F310FA03F2E5
:1065D000C3F19D030BD051EAC35101EB12205306C6
:1065E00038BF704700F1010008BF20F0010070477C
:1065F000B0FA80F310FA03F2C3F19D030AD0D90573
:1066000001EB1220530638BF704700F1010008BFAC
:1066100020F001007047000050EA010C00F11380E7
:106620001CF5000F58BFBCF5000F01D4884270471D
:1066300007D710F5000F58BF11F5000F15D4884289
:106640007047894270471CF5000F04D5BCF5000F58
:10665000F7D5814270474FF0807C1CEB400F38BF6C
:106660001CEB410F01D28142704710B500F0BDF81C
:10667000922449004FF080504FF00051FFF782BE46
:1066800050EA010C00F113801CF5000F58BFBCF557
:10669000000F01D48842704707D710F5000F58BF8C
:1066A00011F5000F15D488427047894270471CF5D8
:1066B000000F04D5BCF5000FF7D5814270474FF0AD
:1066C000807C1CEB400F38BF1CEB410F01D2814294
:1066D000704710B500F089F8922449004FF000503F
:1066E0004FF08051FFF74EBE4FF47F0C1CEAD012E2
:1066F0001EBF1CEAD11392EA0C0F93EA0C0F00F0B4
:10670000478090EA010F48BF42F480724FF0004C7E
:106710004CEA00204CEA012102EB0302A0FB01132A
:10672000A2F50002002918BF43F001035B0028BF57
:106730004FEA330342EB22425FEA132C4CEBC25088
:106740002EBFBCEB436FB2F57C0F70474FEA036C72
:10675000BCF1004F08BF20F00100B2F57C0F38BF3C
:1067600070470BD582F0FF0212F5803FC8BF70471B
:1067700000F1C040D8BF00F00040704700F5000CA9
:106780005FEA4C0C48BF7047B0F1C04000F073B8EE
:106790000CEAD11390EA010F48BF42F480726245BF
:1067A00038BF634504D280EA010000F00040704722
:1067B00010B500F01AF800BF8900013E00F007B8DC
:1067C00000F009B85FEA410C5FEA1C6C08D080EA6F
:1067D000010000F050B85FEA400C5FEA1C6CF6D193
:1067E0004FF00040A0F5800070470EF1020E2EF031
:1067F000030E5EF8044B244204D44FEA4102B2F186
:106800007F4F11D84FEA4003B3F17F4F0CD80ED120
:106810004FEAD07C0CEB4C0C0CF1020CB2F17F4F28
:1068200008BF4CEBD17C04E04FF0080C01E04FEACC
:10683000D17C0CEB4C0324FA03F404F00704B4F10C
:10684000040C06D20EEB840CBDE810404CF0010C99
:106850006047DFE80CF0070802024FF00040A0F5A7
:10686000800010BD0846420018BFD2F1807288BF78
:1068700000F0004010BDFF2141EAD050C005704734
:1068800090EA010F48BF81F000413FF5F6AC421A93
:1068900004D882F00042A0EB020011444FEAD0522B
:1068A000A2EBD1534FF07F4C1CEA410F18BF9CEA7A
:1068B000026F4AD04FF0004C4CEA00204CEA012114
:1068C00021FA03FCB0EB0C0C0FD412F0FE0F36D003
:1068D0005FEA4C001DD5001240EBC25038BF704734
:1068E0001CF03F0F18BF70470BE05FEA1C20A2F1BD
:1068F000010240EBC25038BF70471CF07F0F18BF39
:106900007047C3F12003994014BF401E20F00100DE
:1069100070474FEA1223800808BF7047B0FA80FC26
:10692000A2EB0C02CCF1280C60FA0CF093EA122FC7
:1069300004BF00EBC25070474FEAC3707047130AA0
:106940005FEADC1008BF7047F6E79CEA026F04D0EC
:1069500010EA5C0F08BF0020704710B5FFF745FF35
:1069600040DFF63E81F000407047191B12131D15E1
:1069700016171A090A0B1E0D0E0F0000A069000859
:1069800000000020D003000008110008986C0008E7
:10699000D0030020A00900006411000800000000DE
:1069A00032CA23E02E23D00712FF300CA00F01A023
:1069B0000206E803050A2C3220120574D430016364
:1069C00020035AE808C123204E14A08601143C0A73
:1069D0000A1B24F40C130F0212B41B01051211122E
:1069E00046120E144A011423010232FA1401080857
:1069F0001A781816D0070E0AB412B712BA12BD12BE
:106A0000C112C412C712CA12CD12D012D312D6129A
:106A1000D912DC12E012E312E612E912EC12EF12C4
:106A2000F212F51AF73E1AFD3F1866030106010936
:106A3000010B010E0111011301160119011B011EA9
:106A40000120012301250128012A012C012F0131F8
:106A5000013301350138013A013C013E0140014258
:106A60000144014601470149014B014D014E0150CE
:106A7000015101530154015601570158015A015B5C
:106A8000015C015D015E015F016001610162016302
:106A9000021C640165021A66023A6702FA6802493A
:106AA000182922292A3A64361A62401A60481A5E66
:106AB000501A5C581A5A601A57681A54701A51784A
:106AC0001A4E801A4B881A47901A44981A40A01AF6
:106AD0003CA81A38B01A33B81A2FC01A2AC81A2577
:106AE000D01A20D81A1BE01A16E81A11F01A0BF85F
:106AF00015060103011301FD12FA12F712F512F245
:106B000012EF12EC12E912E612E312E012DC12D9D3
:106B100012D612D312D012CD12CA12C712C412C189
:106B200012BD12BA12B712B412B112AE12AB12A742
:106B300012A412A1129E129B129812951292128FF9
:106B4000128C128812851282127F127C12791276B0
:106B500012731271126E126B126812651262125F5A
:106B6000125D125A125712551252124F124D124AFA
:106B70001248124512431240123E123C123912378B
:106B8000123512331230122E122C122A122812260B
:106B9000122412221221121F121D121B121A121875
:106BA000121712151214121212111210120E120DC7
:106BB000120C120B120A12091208120712061A05F9
:106BC0000212041A03021A020219D9190201124907
:106BD000182922292A3A04361A06401A08481A0A9D
:106BE000501A0C581A0E601A11681A14701A177875
:106BF0001A1A801A1D881A21901A24981A28A01A85
:106C00002CA81A30B01A35B81A39C01A3EC81A431F
:106C1000D01A48D81A4DE01A52E81A57F01A5DF8FF
:106C2000126212651268126B126E12711273127672
:106C30001279127C127F128212851288128C128FA6
:106C4000129212951298129B129E12A112A412A7D0
:106C500012AB12AE12B116DC0501016410086C070C
:106C60004C04DC0578430505720A021364231027DF
:106C70006350C372020A193228123C1E641968015B
:106C8000014C220113127A121E6009A00F9001A07C
:086C90000FD007000000000016
:020000040800F2
:107BE00041494B4F4E5F3535415F463432310000DD
:0C7BF00000000000000000000000000089
:04000005080010CD12
:00000001FF
